:100000007BC000000C94DF0D98C0000096C000007B
:1000100094C000000C94B80D0C94720D8EC00000BA
:100020008CC000008AC0000088C0000086C00000AC
:1000300084C0000082C0000080C000007EC00000BC
:100040007CC000007AC0000078C0000076C00000CC
:1000500074C0000072C0000070C000006EC00000DC
:100060006CC000006AC0000068C0000066C00000EC
:1000700064C0000062C0000060C000005EC00000FC
:100080005CC000005AC0000058C0000056C000000C
:1000900054C0000052C0000050C000004EC000001C
:1000A0004CC000004AC0000048C0000046C000002C
:1000B00044C0000042C0000040C000003EC000003C
:1000C0003CC000003AC0000038C0000036C000004C
:1000D00034C0000032C0000030C000002EC000005C
:1000E0002CC0000048089108C408180942096C098E
:1000F000170A7F0AAD0AE20A11241FBECFEFD1E230
:10010000DEBFCDBF00E00CBF1AE0A0E0B2E0ECE241
:10011000F4E200E00BBF02C007900D92AC32B107D1
:10012000D9F72AE0ACE2BAE001C01D92AC3BB207BD
:10013000E1F70E94780E0C94141262CF0C94F31124
:1001400008950C94E311089544E050E060E070E0FD
:1001500081E292E0F3DF44E050E064E070E08DE1A2
:1001600092E0ECDF44E050E068E070E089E192E08A
:10017000E5DF42E050E06CE070E087E192E0DEDF36
:1001800046E050E060E170E081E192E0D7DF42E0DC
:1001900050E060E270E082E092E0D0DF48E750E0BB
:1001A00064E270E084E49AE0C9DF42E050E064E297
:1001B00071E082E49AE0C2DF42E050E068E271E080
:1001C00080E49AE0BBDF42E050E06CE271E08EE355
:1001D0009AE0B4DF42E050E060E371E08CE39AE043
:1001E000ADDF42E050E064E371E08AE39AE0A6DF2D
:1001F00042E050E068E371E088E39AE09FDF42E08C
:1002000050E06CE371E080E092E098DF44E050E081
:1002100060E471E084E39AE091DF44E050E064E55B
:1002200071E080E39AE08ADF44E050E068E671E044
:100230008CE29AE083DF4DE050E06EE771E084E00D
:1002400092E07CCF089585B982B18E7F82B982B168
:100250008D7F82B982B1846082B983ED90E301978A
:10026000F1F700C0000082B18B7F82B9089585B993
:1002700082B1816082B982B18D7F82B982B184609E
:1002800082B983ED90E30197F1F700C0000082B1DD
:100290008B7F82B9089588E3D6DF8CE0D4DF86E0D7
:1002A000D2DF81E0D0CF0895EF92FF920F931F939A
:1002B000CF93DF937C01FC0101900020E9F7319797
:1002C0008F01081B190BC0E0D0E006C0F701EC0F4E
:1002D000FD1F8081CCDF2196C017D107BCF3DF91D1
:1002E000CF911F910F91FF90EF900895809302019D
:1002F00081B38E7F81BB81B38D7F81BB81B38460ED
:1003000081BB83ED90E30197F1F700C0000081B35A
:100310008B7F81BB08958093020181B3816081BB93
:1003200081B38D7F81BB81B3846081BB83ED90E31A
:100330000197F1F700C0000081B38B7F81BB089566
:1003400088E3D4DF8CE0D2DF86E0D0DF81E0CECF5F
:100350000895EF92FF920F931F93CF93DF937C0149
:10036000FC0101900020E9F731978F01081B190B60
:10037000C0E0D0E006C0F701EC0FFD1F8081CBDFAD
:100380002196C017D107BCF3DF91CF911F910F9138
:10039000FF90EF9008958EEF809305018091030107
:1003A00084FF48C08091030185FF47C0809103010D
:1003B00086FF46C08091030188230CF044C083ED82
:1003C00090E30197F1F700C000008DEF80930501E5
:1003D0008091030184FF3AC08091030185FF39C0F9
:1003E0008091030186FF38C0809103018823BCF50A
:1003F00083ED90E30197F1F700C000008BEF80934D
:1004000005018091030184FF2DC08091030185FFC8
:100410002CC08091030186FF2BC0809103018823AB
:1004200054F583ED90E30197F1F700C0000088ECEC
:1004300090E0089581E090E0089584E090E00895D0
:1004400087E090E0089584E690E0089582E090E0EF
:10045000089585E090E0089588E090E0089580E0B8
:1004600090E0089583E090E0089586E090E008959C
:1004700089E090E0089583E690E00895BC0120E0D3
:1004800030E080E090E00FC0F901EE0FFF1FE20FB7
:10049000F31FEE0FFF1FE60FF71F4081442331F0DB
:1004A00001962F5F3F4F2431310574F30895109268
:1004B000CD0083E38093CC0088E18093C90086E07F
:1004C0008093CA000895DC01FC0101900020E9F747
:1004D0003197AF01481B590B20E030E00CC09091E0
:1004E000C80095FFFCCFFD01E20FF31F90819093B0
:1004F000CE002F5F3F4F241735078CF3089590915E
:10050000C80095FFFCCF8093CE0008958091C8006D
:100510008823E4F78091CE000895EF92FF921F9315
:10052000CF93DF93CDB7DEB72A970FB6F894DEBF2F
:100530000FBECDBFE12CF12C8091C8008823E4F7D9
:100540001091CE00812FDBDF1D3011F01A3061F4E5
:10055000E1E0F0E0EC0FFD1FEE0DFF1D1082CE017B
:1005600001960E94D30E0BC0E1E0F0E0EC0FFD1FFE
:10057000EE0DFF1D10838FEFE81AF80ADDCF2A96E3
:100580000FB6F894DEBF0FBECDBFDF91CF911F91A4
:10059000FF90EF9008958F929F92AF92BF92CF926B
:1005A000DF92EF92FF920F931F93CF93DF93CDB71C
:1005B000DEB727970FB6F894DEBF0FBECDBF48E772
:1005C00050E064E270E084E49AE0BBDD42E050E099
:1005D00064E271E082E49AE0B4DD42E050E068E277
:1005E00071E080E49AE0ADDD42E050E06CE271E061
:1005F0008EE39AE0A6DD42E050E060E371E08CE338
:100600009AE09FDD42E050E064E371E08AE39AE023
:1006100098DD85E292E057DF81E492E054DF00E06C
:1006200010E00BC073DFE1E0F0E0EC0FFD1FE00F26
:10063000F11F808364DF0F5F1F4F0630110594F3B5
:100640001F8284E598E03FDF00E010E012C0C8019F
:10065000880F991F800F911F880F991FBE016F5F30
:100660007F4F8C5B954F0E94F00E892B59F00F5FE6
:100670001F4F80913A0A90913B0A081719073CF3E3
:100680000FEF1FEF0F3F2FEF120709F4F0C080E5C7
:1006900092E019DF84E598E016DF8BE692E013DF45
:1006A0003CDF7C0180E892E00EDF37DF80903E0A7D
:1006B00090903F0A881A990A90923F0A80923E0AC7
:1006C000A090400AB090410AAE18BF08B092410A0B
:1006D000A092400A8E0D9F1D2091420A3091430A3C
:1006E000A901481B590B5093430A4093420A809139
:1006F0003C0A90913D0A019790933D0A80933C0AF1
:10070000C0903A0AD0903B0A51E0C51AD108D09265
:100710003B0AC0923A0A980119C079018FEFE81A92
:10072000F80AB701660F771F6E0D7F1D660F771FE2
:100730006C5B754FC901880F991F820F931F880F3B
:10074000991F8C5B954F0E94F90E9701760191E0FD
:10075000E91AF1082E153F0504F36701CC0CDD1CE6
:10076000CE0CDF1CC601880F991FFC01EC5BF54F16
:100770006F011082AB2809F07DC08928D1F07AC0C2
:100780005801FFEFAF1ABF0AB501660F771F6A0D58
:100790007B1D660F771F6C5B754FC801880F991F13
:1007A000800F911F880F991F8C5B954F0E94F90E47
:1007B00085010E151F0524F3F6011082F0923B0A05
:1007C000E0923A0A48E750E064E270E084E49AE09C
:1007D000B5DC42E050E064E271E082E49AE0AEDC35
:1007E00042E050E068E271E080E49AE0A7DC42E099
:1007F00050E06CE271E08EE39AE0A0DC42E050E071
:1008000060E371E08CE39AE099DC42E050E064E35D
:1008100071E08AE39AE092DC81E015DD80E813DD87
:1008200081E992E041DD80EC0EDD86EA92E03CDD7C
:1008300084E909DD85EB92E037DDFFEB27E239E063
:10084000F15020403040E1F700C0000081E0FBDCC7
:1008500080ECF9DC83EC92E027DD4FE75AE186E09B
:10086000415050408040E1F700C0000003C083EDDC
:1008700092E029DE48E750E064E270E084E49AE028
:100880005DDC42E050E064E271E082E49AE056DC34
:1008900042E050E068E271E080E49AE04FDC42E040
:1008A00050E06CE271E08EE39AE048DC42E050E018
:1008B00060E371E08CE39AE041DC42E050E064E305
:1008C00071E08AE39AE03ADC27960FB6F894DEBF2F
:1008D0000FBECDBFDF91CF911F910F91FF90EF9091
:1008E000DF90CF90BF90AF909F908F900895CF9260
:1008F000DF92EF92FF920F931F93CF93DF9344E029
:1009000050E060E070E081E292E01BDC44E050E007
:1009100064E070E08DE192E014DC48E750E064E2CE
:1009200070E084E49AE00DDC42E050E064E271E0C3
:1009300082E49AE006DC42E050E068E271E080E4A4
:100940009AE0FFDB42E050E06CE271E08EE39AE077
:10095000F8DB42E050E060E371E08CE39AE0F1DB29
:1009600042E050E064E371E08AE39AE0EADB44E0CD
:1009700050E068E671E08CE29AE0E3DB44E050E0AE
:1009800060E471E084E39AE0DCDB82E093E09BDDED
:1009900082E393E098DD84E49AE070DD8C01C0E0AE
:1009A000D0E00FC0B3DDF801EE0FFF1FE00FF11F25
:1009B000EE0FFF1FEC5BF54FEC0FFD1F80839FDDFB
:1009C0002196C630D10574F384E598E07CDD8BE692
:1009D00092E079DDA2DDEC0180E892E074DD9DDD3E
:1009E000FC0120912102309122024091230250917A
:1009F0002402DE010E94B40E6B017C0120911D02D5
:100A000030911E0240911F0250912002DF010E948E
:100A1000B40EDC01CB018C0D9D1DAE1DBF1D9E01D2
:100A20002E0F3F1F4091420A5091430A240F351F59
:100A30003093430A2093420A2091400A3091410AA0
:100A4000C20FD31FD093410AC093400A20913E0A9F
:100A500030913F0AE20FF31FF0933F0AE0933E0A02
:100A600020913C0A30913D0A2F5F3F4F30933D0A61
:100A700020933C0A20913A0A30913B0A2F5F3F4F66
:100A800030933B0A20933A0A0091340A1091350AB8
:100A90002091360A3091370A080F191F2A1F3B1F71
:100AA0000093340A1093350A2093360A3093370A9C
:100AB00000912C0A10912D0A20912E0A30912F0AB4
:100AC000800F911FA21FB31F80932C0A90932D0AB1
:100AD000A0932E0AB0932F0A48E750E064E270E03A
:100AE00084E49AE02BDB42E050E064E271E082E4CF
:100AF0009AE024DB42E050E068E271E080E49AE0B2
:100B00001DDB42E050E06CE271E08EE39AE016DB20
:100B100042E050E060E371E08CE39AE00FDB42E0FA
:100B200050E064E371E08AE39AE008DB44E050E0DF
:100B300060E471E084E39AE001DB44E050E068E6C1
:100B400071E08CE29AE0FADA82E493E0BCDC81E0C6
:100B50007ADB80E878DB81E992E0A6DB80EC73DB6E
:100B600086EA92E0A1DB84E96EDB83E593E09CDB1F
:100B70002FEB87E299E0215080409040E1F700C0E0
:100B8000000081E060DB80EC5EDB83EC92E08CDBDC
:100B90002FE78AE196E0215080409040E1F700C0C5
:100BA0000000DF91CF911F910F91FF90EF90DF90A8
:100BB000CF9008950F931F93CF93DF9344E050E0BD
:100BC00060E070E081E292E0BCDA44E050E064E092
:100BD00070E08DE192E0B5DA48E750E064E270E061
:100BE00084E49AE0AEDA42E050E064E271E082E44C
:100BF0009AE0A7DA42E050E068E271E080E49AE02F
:100C0000A0DA42E050E06CE271E08EE39AE099DA1B
:100C100042E050E060E371E08CE39AE092DA42E077
:100C200050E064E371E08AE39AE08BDA44E050E05C
:100C300068E671E08CE29AE084DA44E050E060E437
:100C400071E084E39AE07DDA42E050E068E371E02D
:100C500088E39AE076DA82E093E035DC82E393E0A1
:100C600032DC84E49AE00ADC8C01C0E0D0E00FC002
:100C70004DDCF801EE0FFF1FE00FF11FEE0FFF1F1D
:100C8000EC5BF54FEC0FFD1F808339DC2196C630FD
:100C9000D10574F384E598E016DC8BE692E013DC72
:100CA0003CDCEC0180E892E00EDC37DC9C018091BA
:100CB0002102909122028C9FF0018D9FF00D9C9F4C
:100CC000F00D112440911D0250911E02429FC0015F
:100CD000439F900D529F900D11248F01080F191FF3
:100CE000AE01420F531F6091420A7091430A460FB2
:100CF000571F5093430A4093420A4091400A509133
:100D0000410AC40FD51FD093410AC093400A4091B5
:100D10003E0A50913F0A240F351F30933F0A20931B
:100D20003E0A20913C0A30913D0A2F5F3F4F30939D
:100D30003D0A20933C0A20913A0A30913B0A2F5FEA
:100D40003F4F30933B0A20933A0A2091380A309162
:100D5000390A215031093093390A2093380A012E7B
:100D6000000C220B330B4091340A5091350A6091EC
:100D7000360A7091370A040F151F261F371F00937C
:100D8000340A1093350A2093360A3093370A092E15
:100D9000000CAA0BBB0B00912C0A10912D0A20917C
:100DA0002E0A30912F0AAC01BD01400F511F621F66
:100DB000731FCF01FF0FAA0BBB0B840F951FA61F3C
:100DC000B71F80932C0A90932D0AA0932E0AB093FC
:100DD0002F0A42E050E068E371E088E39AE0AED980
:100DE00048E750E064E270E084E49AE0A7D942E08A
:100DF00050E064E271E082E49AE0A0D942E050E081
:100E000068E271E080E49AE099D942E050E06CE257
:100E100071E08EE39AE092D942E050E060E371E045
:100E20008CE39AE08BD942E050E064E371E08AE31E
:100E30009AE084D944E050E060E471E084E39AE011
:100E40007DD944E050E068E671E08CE29AE076D922
:100E500082E493E038DB81E0F6D980E8F4D981E9D7
:100E600092E022DA80ECEFD986EA92E01DDA84E99A
:100E7000EAD983E593E018DA2FEB87E299E0215075
:100E800080409040E1F700C0000081E0DCD980ECB8
:100E9000DAD983EC92E008DA2FE78AE196E0215074
:100EA00080409040E1F700C00000DF91CF911F919A
:100EB0000F9108950F931F93CF93DF93CDB7DEB7B4
:100EC0002C970FB6F894DEBF0FBECDBF44E050E0C4
:100ED00060E471E084E39AE034D944E050E064E5F2
:100EE00071E080E39AE02DD944E050E068E671E0DB
:100EF0008CE29AE026D98091370A8F938091360A46
:100F00008F938091350A8F938091340A8F9382E674
:100F100093E09F938F938E010F5F1F4F1F930F934B
:100F200077D786E693E0CFDAC801CDDA84E598E09A
:100F3000CADA8FE793E0C7DA8BE893E0C4DAEDDA38
:100F40000FB6F894DEBF0FBECDBF8130910509F01A
:100F500045C01092340A1092350A1092360A109247
:100F6000370A1092300A1092310A1092320A109207
:100F7000330A10922C0A10922D0A10922E0A109207
:100F80002F0A44E050E060E471E084E39AE0D6D8B0
:100F900044E050E064E571E080E39AE0CFD844E0BB
:100FA00050E068E671E08CE29AE0C8D885EA93E008
:100FB0008ADAEBE0F1E08081816080833FE78AE1BB
:100FC00096E0315080409040E1F700C00000808101
:100FD0008E7F80838FEB93E076DA0CC0029721F44A
:100FE00087EE93E070DA06C08DEF93E06CDA8EE066
:100FF00094E069DA2C960FB6F894DEBF0FBECDBF31
:10100000DF91CF911F910F910895CF93DF93CDB7CB
:10101000DEB768970FB6F894DEBF0FBECDBF81E292
:1010200094E051DA84E598E04EDA85E594E04BDA15
:101030008BE794E048DA8FE894E045DA81ED94E0BC
:1010400042DA8CEF94E03FDA8AE595E03CDA82E818
:1010500095E039DA87EA95E036DA8DEB95E033DA18
:101060008FEC95E030DA80E096E02DDA83E196E0CF
:101070002ADA80E396E027DA50DA01978A30910580
:1010800008F03BC3FC018827EE58FF4F8F4F64C622
:1010900042E050E068E271E080E49AE052D842E039
:1010A00050E06CE271E08EE39AE04BD88091410A07
:1010B0008F938091400A8F9306E416E01F930F935D
:1010C0007E018DE0E80EF11CFF92EF92A1D6809197
:1010D0003F0A8F9380913E0A8F931F930F938E0147
:1010E0000F5F1F4F1F930F9393D689E496E0EBD9C0
:1010F0008DE496E0E8D9C701E6D984E598E0E3D924
:1011000088E596E0E0D9C801DED984E598E0DBD92E
:1011100084E598E0D8D90FB6F894DEBF0FBECDBFF6
:10112000ECC248E750E064E270E084E49AE009D859
:1011300084E49AE0A3D96C01E12CF12C1BC0F701E7
:10114000EE0FFF1FEE0DFF1DEE0FFF1FEC5BF54FC7
:10115000E00FF11F8081D3D90F5F1F4F02C000E065
:1011600010E0063011055CF381EC96E0ACD99FEFFE
:10117000E91AF90AEC14FD0494F384E598E0A3D984
:1011800084E598E0A0D9B9C244E050E064E571E09C
:1011900080E39AE00E94A10044E050E068E671E03C
:1011A0008CE29AE00E94A1008091330A8F93809193
:1011B000320A8F938091310A8F938091300A8F93F6
:1011C00002E613E01F930F937E018DE0E80EF11C01
:1011D000FF92EF921DD680912F0A8F9380912E0A55
:1011E0008F9380912D0A8F9380912C0A8F931F9358
:1011F0000F938E010F5F1F4F1F930F9309D681E648
:1012000096E061D9C7015FD984E598E05CD98EE7A3
:1012100096E059D9C80157D984E598E054D984E5B6
:1012200098E051D90FB6F894DEBF0FBECDBF65C2AE
:1012300042E050E060E371E08CE39AE00E94A1009C
:1012400080913D0A8F9380913C0A8F9386E496E0CB
:101250009F938F938E010F5F1F4F1F930F93D8D5CE
:101260008BE996E030D9C8012ED984E598E02BD9D6
:1012700084E598E028D90F900F900F900F900F9071
:101280000F903BC242E050E06CE371E080E092E0FE
:101290000E94A100809101028F93809100028F93A0
:1012A00086E496E09F938F938E010F5F1F4F1F93ED
:1012B0000F93AED585EA96E006D9C80104D984E536
:1012C00098E001D984E598E0FED80F900F900F9038
:1012D0000F900F900F9011C246E050E060E170E077
:1012E00081E192E00E94A10083EC96E0ECD800E05E
:1012F00010E00CC00BD9E1E0F0E0EC0FFD1FE00FB7
:10130000F11F80838AE2FBD80F5F1F4F0530110564
:101310008CF3E1E1F2E001900020E9F73197AF01B1
:101320004151524080E090E00EC0FC01EF5EFD4F65
:101330003081E1E0F0E0EC0FFD1FE80FF91F2081A4
:10134000321307C00196841795077CF381E090E083
:1013500002C080E090E0892B09F45FC042E050E0D9
:101360006CE371E080E092E00E94A10042E050E076
:1013700060E270E082E092E00E94A1002091000211
:1013800030910102809102029091030228173907DF
:1013900051F484E598E097D88BED96E094D884E5F5
:1013A00098E091D8AAC184E598E08DD887E297E0CB
:1013B0008AD8B3D88C0142E050E06CE371E080E061
:1013C00092E00E94A1008091000290910102800FA2
:1013D000911F20910202309103022817390754F41B
:1013E00084E598E070D88AE497E06DD884E598E0C9
:1013F0006AD883C1909301028093000242E050E0DA
:101400006CE371E080E092E00E949E0084E598E049
:101410005AD884E897E057D870C184E598E053D84B
:1014200087EA97E050D884E598E04DD866C180EC13
:1014300097E049D88BED97E046D88DEF97E043D8F9
:101440006CD88130910549F542E050E06CE070E0E5
:1014500087E192E00E94A10042E050E064E271E086
:1014600082E49AE00E94A10084E49AE007D84091C7
:10147000420A5091430A20911702309118024217F4
:10148000530714F0449729F032DA84E198E01BD82E
:1014900034C18EE298E017D830C18230910531F521
:1014A00042E050E06CE070E087E192E00E94A10031
:1014B00042E050E064E271E082E49AE00E94A10020
:1014C0002091420A3091430A8091170290911802AC
:1014D0002817390734F46EDB84E198E00E94630238
:1014E0000CC18EE298E00E94630207C1039711F4D9
:1014F00052D803C187E598E00E946302FEC042E033
:1015000050E068E371E088E39AE00E94A1008091D6
:10151000390A8F938091380A8F9386E496E09F93DF
:101520008F938E010F5F1F4F1F930F9371D48DE622
:1015300098E00E946302C8010E94630284E598E07B
:101540000E94630284E598E00E9463020F900F906E
:101550000F900F900F900F90D0C042E050E06CE0E1
:1015600070E087E192E00E94A10042E050E064E276
:1015700071E082E49AE00E94A1002091420A309139
:10158000430A8091170290911802281739076CF4CA
:1015900085E898E00E94630284E598E00E94630277
:1015A00084E598E00E946302A8C08FE998E00E9459
:1015B000630284E598E00E94630284E598E00E945B
:1015C00063029BC046E050E060E170E081E192E0A0
:1015D0000E94A1004DE050E06EE771E084E092E0EF
:1015E0000E94A10089EB98E00E9463028FEC98E0D2
:1015F0000E94630200E010E00DC00E948602E1E05C
:10160000F0E0EC0FFD1FE00FF11F80830E947F02CE
:101610000F5F1F4F0C30110584F384E598E00E94A2
:101620006302E4E0F2E001900020E9F73197AF01B6
:101630004450524080E090E00EC0FC01EC5FFD4F52
:101640003081E1E0F0E0EC0FFD1FE80FF91F208191
:10165000321308C00196841795077CF3EE24E394B7
:10166000F12C02C0E12CF12C82EE98E00E94630282
:1016700000E010E00EC00E948602EDE0F0E0EC0F0A
:10168000FD1FE00FF11F80838AE20E947F020F5F3F
:101690001F4F053011057CF384E598E00E9463023A
:1016A000E1E1F2E001900020E9F73197AF0141510B
:1016B000524080E090E00EC0FC01EF5EFD4F3081B3
:1016C000EDE0F0E0EC0FFD1FE80FF91F2081321371
:1016D00007C00196841795077CF381E090E002C073
:1016E00080E090E0019729F4EA94EF2811F4E2DB1E
:1016F00004C085EF98E00E94630284E598E00E94B0
:10170000630284E598E00E9463028FCCCF92DF925F
:10171000EF92FF920F931F93CF93DF93CDB7DEB776
:101720002E970FB6F894DEBF0FBECDBF81E00E94AA
:10173000760180E80E94760182E199E00E94A90189
:1017400084EC0E94760181E299E00E94A90184E97B
:101750000E9476018BE299E00E94A9010E94CB01D0
:101760008C0103C00E94CB018C01083C1105D1F310
:101770001F930F930F2EF6E4EF2EF6E0FF2EF02DC1
:10178000FF92EF92CE0101966C019F938F9340D30D
:1017900084ED0E947601C6010E94A9019FE72AE11B
:1017A00046E0915020404040E1F700C000002CEDA1
:1017B00035E0029FC001039F900D129F900D1124F0
:1017C0009F938F93FF92EF927E0183E0E80EF11CCE
:1017D000FF92EF921DD381E00E94760180E80E9483
:1017E00076018AE399E00E94A9018AE80E947601C5
:1017F000C7010E94A90180EC0E94760185E499E06E
:101800000E94A9010E94CB017C010FB6F894DEBFB3
:101810000FBECDBF03C00E94CB017C0198ECE9163E
:10182000F104C9F3FF92EF9286E496E09F938F93C1
:101830006E012DE0C20ED11CDF92CF92E9D284ED71
:101840000E947601C6010E94A9014FE38DE093E05A
:10185000415080409040E1F700C000000F900F9091
:101860000F900F900F900F9021E0E216F10409F015
:10187000FCC081E00E94760180E80E94760187E545
:1018800099E00E94A90120E030E01CC0EBE0F1E00B
:101890008081816080834FE38DE093E04150804000
:1018A0009040E1F700C0000080818E7F80834FE38D
:1018B0008DE093E0415080409040E1F700C000008F
:1018C0002F5F3F4F233031050CF380EC0E947601EF
:1018D0008CE699E00E94A9012FE74AE186E02150B9
:1018E00040408040E1F700C0000044E050E068E084
:1018F00070E089E192E00E94A10042E050E06CE3D8
:1019000071E080E092E00E94A10044E050E060E4D9
:1019100071E084E39AE00E94A10044E050E064E5B5
:1019200071E080E39AE00E94A10080910002909112
:101930000102801B910B9093010280930002209181
:10194000190230911A02209FC001219F900D309FF3
:10195000900D1124092E000CAA0BBB0B4091340AE8
:101960005091350A6091360A7091370A480F591F15
:101970006A1F7B1F4093340A5093350A6093360ADE
:101980007093370A4091300A5091310A6091320ABF
:101990007091330A840F951FA61FB71F8093300ADA
:1019A0009093310AA093320AB093330A42E050E098
:1019B0006CE371E080E092E00E949E0044E050E021
:1019C00060E471E084E39AE00E949E0044E050E00D
:1019D00064E571E080E39AE00E949E0081E00E944D
:1019E000760180E80E94760181E899E00E94A901D1
:1019F00084E90E9476018FE899E00E94A90120E025
:101A000030E01CC0EBE0F1E08081826080839FE7E2
:101A10004AE186E0915040408040E1F700C000007C
:101A200080818D7F80839FE74AE186E0915040402E
:101A30008040E1F700C000002F5F3F4F20173107C3
:101A40000CF381E00E94760180E80E94760181EA31
:101A500099E00E94A9019FE72AE146E091502040C9
:101A60004040E1F700C000002EC082E0E816F1041B
:101A7000C9F481E00E94760180E80E94760183EB40
:101A800099E00E94A90180EC0E94760183EC99E024
:101A90000E94A90184E90E9476018CEC99E00E94E1
:101AA000A90111C081E00E94760180E80E947601C0
:101AB0008DED99E00E94A90184E90E9476018CECE9
:101AC00099E00E94A9012E960FB6F894DEBF0FBED2
:101AD000CDBFDF91CF911F910F91FF90EF90DF90DD
:101AE000CF9008951F920F920FB60F9211240BB64C
:101AF0000F922F933F934F935F936F937F938F93A7
:101B00009F93AF93BF93EF93FF938EB184608EB991
:101B100081E00E94230180E80E9423018BEE99E07E
:101B20000E94540187EC0E9423018CEF99E00E94EF
:101B300054012FE986E891E0215080409040E1F780
:101B400000C000008EB18B7F8EB9FF91EF91BF91E5
:101B5000AF919F918F917F916F915F914F913F9145
:101B60002F910F900BBE0F900FBE0F901F901895E6
:101B70001F920F920FB60F9211240BB60F922F9354
:101B80003F934F935F936F937F938F939F93AF9305
:101B9000BF93EF93FF93BADDFF91EF91BF91AF91A8
:101BA0009F918F917F916F915F914F913F912F9175
:101BB0000F900BBE0F900FBE0F901F9018951F92A5
:101BC0000F920FB60F9211240BB60F922F933F93E3
:101BD0004F935F936F937F938F939F93AF93BF9335
:101BE000EF93FF938EB184608EB981E00E94230150
:101BF00080E80E94230184E09AE00E94540187EC6F
:101C00000E9423018CEF99E00E9454012FE78AE1A2
:101C100096E0215080409040E1F700C000008EB176
:101C20008B7F8EB942E050E06CE070E087E192E09B
:101C30000E94A10042E050E064E271E082E49AE098
:101C40000E94A10048E750E064E270E084E49AE07A
:101C50000E94A10084E49AE00E943E024091420A60
:101C60005091430A209117023091180242175307EE
:101C700064F1449751F542E050E068E371E088E395
:101C80009AE00E94A1008091380A9091390A019649
:101C90009093390A8093380A42E050E068E371E09B
:101CA00088E39AE00E949E0081E00E94230180E880
:101CB0000E94230185E19AE00E94540180EC0E9479
:101CC00023018FE19AE00E945401FF91EF91BF91AF
:101CD000AF919F918F917F916F915F914F913F91C4
:101CE0002F910F900BBE0F900FBE0F901F90189565
:101CF0000E9457028FEF81B984B980BB87E087B912
:101D00009DB194609DB99DB19F7C9DB99AB19E7F14
:101D10009AB9EAE0F1E090819360908380930401A6
:101D200087B90E94A0010E944B010E94A4008DB3BC
:101D300081608DBB8DB380618DBB8DB380628DBBA7
:101D4000E9E6F0E0808183608083EAE6F0E080816C
:101D50008F608083789459D9EE0FFF1F881F8BBF47
:101D60000790F691E02D1994B7FF04C003D0821BB1
:101D7000930B089509D0A59F900DB49F900DA49F3B
:101D8000800D911D11240895A29FB001B39FC00141
:101D9000A39F700D811D1124911DB29F700D811D97
:101DA0001124911D0895FC0188279927E894219119
:101DB0002032E9F3293010F02E30C8F32B3239F0FD
:101DC0002D3231F4689403C01BD0820F911D2191F4
:101DD00020532A30C8F31EF4909581959F4F0895A3
:101DE000FB01DC018D91019080190110D9F3990B51
:101DF0000895FB01DC0101900D920020E1F70895A8
:101E00007AE0979F902D879F802D910D1124089542
:101E10000F931F93CF93DF93CDB7DEB72E970FB6F7
:101E2000F894DEBF0FBECDBF0E891F8986E08C837C
:101E30001A8309838FEF9FE79E838D83AE01465EF1
:101E40005F4F688D798DCE01019610D0EF81F885B6
:101E5000E00FF11F10822E960FB6F894DEBF0FBE72
:101E6000CDBFDF91CF911F910F9108952F923F9297
:101E70004F925F926F927F928F929F92AF92BF929A
:101E8000CF92DF92EF92FF920F931F93CF93DF9346
:101E9000CDB7DEB72B970FB6F894DEBF0FBECDBF20
:101EA0006C017B018A01FC0117821682838181FF0C
:101EB000BFC1CE0101963C01F6019381F70193FD6C
:101EC000859193FF81917F01882309F4ADC185320B
:101ED00039F493FD859193FF81917F01853221F43F
:101EE000B60190E0D6D1E8CF912C212C312CFFE126
:101EF000F315D8F08B3279F038F4803279F08332F0
:101F0000A1F4232D20611DC08D3261F0803369F46E
:101F1000232D216016C0832D8260382EE32DE460CE
:101F20003E2E2AC0F32DF8601DC037FC2DC020EDD9
:101F3000280F2A3040F08E32B9F436FC75C1232DBB
:101F40002064322E19C036FE06C08AE0989E200D0D
:101F50001124922E11C0EAE02E9E200D1124222E73
:101F6000F32DF0623F2E08C08C3621F4832D80685B
:101F7000382E02C0883641F4F70193FD859193FF16
:101F800081917F018111B3CF982F9F7D955493301C
:101F900028F40C5F1F4F9FE399830DC0833631F007
:101FA000833771F0833509F055C020C0F801808176
:101FB00089830E5F1F4F88248394912C530112C094
:101FC0002801F2E04F0E511CF801A080B18036FECE
:101FD00003C0692D70E002C06FEF7FEFC5014ED1E5
:101FE0004C018201F32DFF773F2E15C0280122E01E
:101FF000420E511CF801A080B18036FE03C0692D4D
:1020000070E002C06FEF7FEFC5012DD14C01F32DC1
:10201000F0683F2E820133FC19C0822D90E08816B3
:102020009906A0F4B60180E290E033D12A94F5CF6E
:10203000F50137FC859137FE81915F01B60190E093
:1020400028D121102A9421E0821A91088114910448
:1020500079F7E1C0843611F0893639F5F80137FE99
:1020600007C060817181828193810C5F1F4F08C01E
:1020700060817181072E000C880B990B0E5F1F4F3A
:10208000F32DFF763F2E97FF09C0909580957095B0
:1020900061957F4F8F4F9F4FF0683F2E2AE030E0D1
:1020A000A30133D1882E861844C0853731F4232DFF
:1020B0002F7EB22E2AE030E025C0932D997FB92ED5
:1020C0008F36C1F018F4883579F0AEC0803719F03A
:1020D000883721F0A9C0E92FE061BE2EB4FE0DC003
:1020E000FB2DF460BF2E09C034FE0AC0292F2660E4
:1020F000B22E06C028E030E005C020E130E002C08A
:1021000020E132E0F801B7FE07C060817181828171
:1021100093810C5F1F4F06C06081718180E090E069
:102120000E5F1F4FA301F1D0882E8618FB2DFF777D
:102130003F2E36FE0DC0232D2E7FA22E891458F47B
:1021400034FE0BC032FC09C0832D8E7EA82E05C044
:10215000B82CA32C03C0B82C01C0B92CA4FE0FC00E
:10216000FE01E80DF11D8081803321F49A2D997EC6
:10217000A92E09C0A2FE06C0B394B39404C08A2D50
:10218000867809F0B394A3FC10C0A0FE06C0B21478
:1021900080F4280C922C9B180DC0B21458F4B60190
:1021A00080E290E076D0B394F8CFB21418F42B18F4
:1021B00002C0982C212CA4FE0FC0B60180E390E051
:1021C00068D0A2FE16C0A1FC03C088E790E002C060
:1021D00088E590E0B6010CC08A2D867851F0A1FE0A
:1021E00002C08BE201C080E2A7FC8DE2B60190E064
:1021F00050D0891430F4B60180E390E04AD09A942C
:10220000F8CF8A94F301E80DF11D8081B60190E0CA
:1022100040D08110F6CF222009F44ECEB60180E2E4
:1022200090E037D02A94F7CFF6018681978102C0DB
:102230008FEF9FEF2B960FB6F894DEBF0FBECDBF8A
:10224000DF91CF911F910F91FF90EF90DF90CF9092
:10225000BF90AF909F908F907F906F905F904F90C6
:102260003F902F900895FC0105906150704001103F
:10227000D8F7809590958E0F9F1F0895FC016150AF
:10228000704001900110D8F7809590958E0F9F1F98
:1022900008950F931F93CF93DF93FB01238121FDBB
:1022A00003C08FEF9FEF2CC022FF16C046815781DD
:1022B000248135814217530744F4A081B1819D01E7
:1022C0002F5F3F4F318320838C93268137812F5F8F
:1022D0003F4F3783268314C08B01EC01FB01008440
:1022E000F185E02D1995892BE1F6D80116968D918F
:1022F0009C911797019617969C938E931697CE01F3
:10230000DF91CF911F910F910895FA01AA272830EC
:1023100051F1203181F1E8946F936E7F6E5F7F4FB2
:102320008F4F9F4FAF4FB1E03ED0B4E03CD0670F2E
:10233000781F891F9A1FA11D680F791F8A1F911D81
:10234000A11D6A0F711D811D911DA11D20D009F4D1
:1023500068943F912AE0269F11243019305D319313
:10236000DEF6CF010895462F4770405D4193B3E0FC
:102370000FD0C9F7F6CF462F4F70405D4A3318F0A3
:10238000495D31FD4052419302D0A9F7EACFB4E054
:10239000A6959795879577956795BA95C9F700970C
:1023A0006105710508959B01AC010A2E06945795AD
:1023B000479537952795BA95C9F7620F731F841F04
:1023C000951FA01D0895DC01CB01FC01F999FECFFA
:1023D00006C0F2BDE1BDF89A319600B40D924150AD
:1023E0005040B8F70895DC01A40FB51F415050408C
:1023F00040F0CB01840F951F2E9105D041505040E5
:10240000D8F70895262FF999FECF92BD81BDF89A8D
:10241000019700B4021639F01FBA20BD0FB6F89428
:0C242000FA9AF99A0FBE0895F894FFCFC5
:10242C0032003200426F62416C6578616E64657295
:10243C0000313233343500E803DC0500001027008E
:10244C0000881300004F5554474F494E47204341D5
:10245C005220524547495354524154494F4E0D0A4C
:10246C00004E756D626572506C6174653A0D0A00B0
:10247C0043617220666F756E6420696E20746865A6
:10248C002073797374656D2E0D0A003130207965D7
:10249C0061727320616E642062656C6F773A200004
:1024AC0041626F76652031302079656172733A2014
:1024BC0000524547495354524154494F4E20434FC3
:1024CC004D504C2E2E0047617465206F70656E6503
:1024DC00642E2E2E00457869742074686520506136
:1024EC00726B004761746520636C6F73696E672E45
:1024FC002E2E00436172206E6F7420666F756E64B1
:10250C0020696E207468652073797374656D2E2054
:10251C00556E61626C6520746F20657869742E0D40
:10252C000A002020202020202020202020202020D5
:10253C002020202020494E434F4D494E47204341F7
:10254C005220524547495354524154494F4E200D45
:10255C000A004E756D626572506C6174653A200D9F
:10256C000A00536176696E6720646174612E2E2EA9
:10257C000D0A00456E746572207468652050617296
:10258C006B00256C75005769746864726177206103
:10259C0020746F74616C206F66205547582000576B
:1025AC00697468647261773F0D0A00312E20576997
:1025BC0074686472617720202020322E43616E6330
:1025CC00656C0D0A004F70656E696E67206D6F6EDD
:1025DC006579207661756C742E2E2E2E0D0A0056A0
:1025EC0061756C74206F70656E65642C20506C6521
:1025FC006173652072656D6F766520746865206DFA
:10260C006F6E65790D0A004F5045524154494F4E3B
:10261C002043414E43454C4C45440D0A00494E560F
:10262C00414C49442043484F4943450D0A00504C06
:10263C00454153452054525920414741494E0D0ABA
:10264C00002020202020202020202020202020209E
:10265C0020202057454C434F4D452C2041434345AA
:10266C00535320544845204D454E552042454C4F20
:10267C0057200D0A000A2020202020202020536DF6
:10268C00617274204E6174696F6E616C205061725E
:10269C006B2053797374656D0D0A0053656C65631B
:1026AC007420616E206F7074696F6E3A0D0A003180
:1026BC002E20486F77206D616E7920746F7572696A
:1026CC007374732C2063617465676F72697A6564C7
:1026DC00206279206167652067726F757020617266
:1026EC006520696E20746865207061726B3F0D0AFD
:1026FC0000322E2057686963682076656869636CC0
:10270C00657320617265207374696C6C20696E202E
:10271C00746865207061726B3F0D0A00332E20487F
:10272C006F77206D75636820686173206265656ED4
:10273C0020636F6C6C6563746564206279207468C7
:10274C0065207061726B2061676772656761746583
:10275C0064206279207468652066726964676520FC
:10276C006D6F6E657920616E6420656E7472616E3A
:10277C0063652066756E640D0A00342E20486F77F1
:10278C00206D616E79206472697665727320617256
:10279C006520696E20746865207061726B3F200D36
:1027AC000A00352E204E756D626572206F662062B0
:1027BC006F74746C657320696E2074686520667222
:1027CC00696467650D0A00362E205265706C656E63
:1027DC00697368204672696467650D0A00372E209C
:1027EC00526567697374726174696F6E0D0A003893
:1027FC002E20486F77206D616E7920636172732093
:10280C006172652077616974696E67206F75747386
:10281C0069646520746865207061726B3F0D0A00F5
:10282C00392E204973207061726B2066756C6C3F79
:10283C000D0A0031302E205769746864726177205C
:10284C00616C6C2074686520636173683F0D0A00CD
:10285C00456E74657220796F75722063686F696359
:10286C00653A200D0A00256400310D0A00436869A1
:10287C006C6472656E3A20004164756C74733A2016
:10288C0000467269646765206D6F6E657920636FB1
:10289C006C6C65637465643A205547582000456E2E
:1028AC007472616E63652066656520636F6C6C6520
:1028BC00637465643A205547582000447269766504
:1028CC0072733A20004E756D626572206F662062DD
:1028DC006F74746C657320696E20667269646765C9
:1028EC003A2000456E74657220796F7572207061A4
:1028FC007373776F72643A200D0A004375727265B8
:10290C006E746C79207468652066726964676520E2
:10291C0069732066756C6C20746F206361706163E1
:10292C006974792C20752063616E2774206164644E
:10293C00206D6F726520776174657220626F74749C
:10294C006C65732E0D0A00456E746572206E756D84
:10295C00626572206F6620626F74746C657320748C
:10296C006F206164643A200D0A00546F6F206D75FE
:10297C0063682E20596F752063616E277420616423
:10298C0064206D6F726520626F74746C6573207453
:10299C0068616E2074686520636170616369747925
:1029AC002E0D0A00467269646765207265706C654D
:1029BC006E6973686564207375636365737366759C
:1029CC006C6C792E0D0A00496E636F7272656374BC
:1029DC002070617373776F7264212121200D0A00BE
:1029EC00312E2052656769737465722043617220C1
:1029FC00456E7472616E63650D0A00322E2052654D
:102A0C0067697374657220436172205761697469D8
:102A1C006E67204F7574736964650D0A00332E2040
:102A2C005265676973746572204361722045584919
:102A3C00540D0A005355434345535346554C4C597A
:102A4C0020524547495354455245440D0A005061A4
:102A5C00726B2066756C6C2E20596F752063616EDD
:102A6C002774207265676973746572202121212196
:102A7C00212121200D0A00496E76616C6964207257
:102A8C006573706F6E73652121210D0A00566568A0
:102A9C0069636C6573204F7574736964652070612C
:102AAC00726B3A2000546865205061726B20697318
:102ABC00206E6F74207965742066756C6C2E0050D6
:102ACC0061726B2069732066756C6C20746F206367
:102ADC00617061636974792E004C4F47494E2046F2
:102AEC004952535420504C45415345200D0A004542
:102AFC006E74657220557365726E616D653A200D4A
:102B0C000A00456E7465722070617373776F72641E
:102B1C003A200D0A00494E56414C49442055534524
:102B2C00524E414D45204F522050415353574F5216
:102B3C0044005075726368617365207761746572C7
:102B4C0000402055475831353030004E6F2E206FE5
:102B5C006620626F74746C657300546F74616C3AA8
:102B6C002055475800313A506179204361736820F1
:102B7C00323A45786974004F70656E696E67206DE6
:102B8C006F6E657920736C6F742E2E0050757420E7
:102B9C00746865206361736820696E20736C6F7450
:102BAC000044697370656E73696E672E2E2E00502B
:102BBC0069636B20796F757220626F74746C6573C6
:102BCC00005468616E6B7320666F72204275796970
:102BDC006E67005472616E73616374696F6E2077F7
:102BEC0061730063616E63656C656400506C656154
:102BFC0073652074727920616761696E00494E5665
:102C0C00414C494420494E505554004F7574676FE0
:102C1C00696E6720546F75726973740056656869C4
:102C2C00636C6500496E636F6D696E6720546F75D8
:102C3C0072697374005061726B2046756C6C005035
:0C2C4C004C4541534520574149540000BD
:00000001FF
